{
  "contractName": "CallerContract",
  "abi": [
    {
      "anonymous": false,
      "inputs": [
        {
          "indexed": false,
          "internalType": "address",
          "name": "oracleAddress",
          "type": "address"
        }
      ],
      "name": "NewOracleAddressEvent",
      "type": "event"
    },
    {
      "anonymous": false,
      "inputs": [
        {
          "indexed": true,
          "internalType": "address",
          "name": "previousOwner",
          "type": "address"
        },
        {
          "indexed": true,
          "internalType": "address",
          "name": "newOwner",
          "type": "address"
        }
      ],
      "name": "OwnershipTransferred",
      "type": "event"
    },
    {
      "anonymous": false,
      "inputs": [
        {
          "indexed": false,
          "internalType": "uint256",
          "name": "id",
          "type": "uint256"
        }
      ],
      "name": "ReceivedNewRequestIdEvent",
      "type": "event"
    },
    {
      "inputs": [],
      "name": "owner",
      "outputs": [
        {
          "internalType": "address",
          "name": "",
          "type": "address"
        }
      ],
      "stateMutability": "view",
      "type": "function"
    },
    {
      "inputs": [],
      "name": "renounceOwnership",
      "outputs": [],
      "stateMutability": "nonpayable",
      "type": "function"
    },
    {
      "inputs": [
        {
          "internalType": "address",
          "name": "newOwner",
          "type": "address"
        }
      ],
      "name": "transferOwnership",
      "outputs": [],
      "stateMutability": "nonpayable",
      "type": "function"
    },
    {
      "inputs": [
        {
          "internalType": "address",
          "name": "_oracleInstanceAddress",
          "type": "address"
        }
      ],
      "name": "setOracleInstanceAddress",
      "outputs": [],
      "stateMutability": "nonpayable",
      "type": "function"
    },
    {
      "inputs": [],
      "name": "updateEthPrice",
      "outputs": [],
      "stateMutability": "nonpayable",
      "type": "function"
    },
    {
      "inputs": [
        {
          "internalType": "uint256",
          "name": "_ethPrice",
          "type": "uint256"
        },
        {
          "internalType": "uint256",
          "name": "_id",
          "type": "uint256"
        }
      ],
      "name": "callback",
      "outputs": [],
      "stateMutability": "nonpayable",
      "type": "function"
    }
  ],
  "bytecode": "0x608060405234801561001057600080fd5b5061002d61002261003260201b60201c565b61003a60201b60201c565b6100fe565b600033905090565b60008060009054906101000a900473ffffffffffffffffffffffffffffffffffffffff169050816000806101000a81548173ffffffffffffffffffffffffffffffffffffffff021916908373ffffffffffffffffffffffffffffffffffffffff1602179055508173ffffffffffffffffffffffffffffffffffffffff168173ffffffffffffffffffffffffffffffffffffffff167f8be0079c531659141344cd1fd0a4f28419497f9722a3daafe3b4186f6b6457e060405160405180910390a35050565b6108c08061010d6000396000f3fe608060405234801561001057600080fd5b50600436106100625760003560e01c806323c7e4a214610067578063715018a6146100715780638da5cb5b1461007b578063b5d73ba414610099578063e9e17a9e146100b5578063f2fde38b146100d1575b600080fd5b61006f6100ed565b005b6100796101ea565b005b610083610272565b6040516100909190610620565b60405180910390f35b6100b360048036038101906100ae9190610676565b61029b565b005b6100cf60048036038101906100ca91906106e2565b61029f565b005b6100eb60048036038101906100e691906106e2565b61041b565b005b6000600260009054906101000a900473ffffffffffffffffffffffffffffffffffffffff1673ffffffffffffffffffffffffffffffffffffffff166330c0b9ec6040518163ffffffff1660e01b81526004016020604051808303816000875af115801561015e573d6000803e3d6000fd5b505050506040513d601f19601f820116820180604052508101906101829190610724565b905060016004600083815260200190815260200160002060006101000a81548160ff0219169083151502179055507f3ed150819af981e387450beb90ec379b8b322150dbb299d492b108c59a623e4b816040516101df9190610760565b60405180910390a150565b6101f2610513565b73ffffffffffffffffffffffffffffffffffffffff16610210610272565b73ffffffffffffffffffffffffffffffffffffffff1614610266576040517f08c379a000000000000000000000000000000000000000000000000000000000815260040161025d906107d8565b60405180910390fd5b610270600061051b565b565b60008060009054906101000a900473ffffffffffffffffffffffffffffffffffffffff16905090565b5050565b6102a7610513565b73ffffffffffffffffffffffffffffffffffffffff166102c5610272565b73ffffffffffffffffffffffffffffffffffffffff161461031b576040517f08c379a0000000000000000000000000000000000000000000000000000000008152600401610312906107d8565b60405180910390fd5b80600360006101000a81548173ffffffffffffffffffffffffffffffffffffffff021916908373ffffffffffffffffffffffffffffffffffffffff160217905550600360009054906101000a900473ffffffffffffffffffffffffffffffffffffffff16600260006101000a81548173ffffffffffffffffffffffffffffffffffffffff021916908373ffffffffffffffffffffffffffffffffffffffff1602179055507f51de03c3383d5c428fe200dd5e9561e7018b49e1e836059d2c7e66bc37f09e01600360009054906101000a900473ffffffffffffffffffffffffffffffffffffffff166040516104109190610620565b60405180910390a150565b610423610513565b73ffffffffffffffffffffffffffffffffffffffff16610441610272565b73ffffffffffffffffffffffffffffffffffffffff1614610497576040517f08c379a000000000000000000000000000000000000000000000000000000000815260040161048e906107d8565b60405180910390fd5b600073ffffffffffffffffffffffffffffffffffffffff168173ffffffffffffffffffffffffffffffffffffffff161415610507576040517f08c379a00000000000000000000000000000000000000000000000000000000081526004016104fe9061086a565b60405180910390fd5b6105108161051b565b50565b600033905090565b60008060009054906101000a900473ffffffffffffffffffffffffffffffffffffffff169050816000806101000a81548173ffffffffffffffffffffffffffffffffffffffff021916908373ffffffffffffffffffffffffffffffffffffffff1602179055508173ffffffffffffffffffffffffffffffffffffffff168173ffffffffffffffffffffffffffffffffffffffff167f8be0079c531659141344cd1fd0a4f28419497f9722a3daafe3b4186f6b6457e060405160405180910390a35050565b600073ffffffffffffffffffffffffffffffffffffffff82169050919050565b600061060a826105df565b9050919050565b61061a816105ff565b82525050565b60006020820190506106356000830184610611565b92915050565b600080fd5b6000819050919050565b61065381610640565b811461065e57600080fd5b50565b6000813590506106708161064a565b92915050565b6000806040838503121561068d5761068c61063b565b5b600061069b85828601610661565b92505060206106ac85828601610661565b9150509250929050565b6106bf816105ff565b81146106ca57600080fd5b50565b6000813590506106dc816106b6565b92915050565b6000602082840312156106f8576106f761063b565b5b6000610706848285016106cd565b91505092915050565b60008151905061071e8161064a565b92915050565b60006020828403121561073a5761073961063b565b5b60006107488482850161070f565b91505092915050565b61075a81610640565b82525050565b60006020820190506107756000830184610751565b92915050565b600082825260208201905092915050565b7f4f776e61626c653a2063616c6c6572206973206e6f7420746865206f776e6572600082015250565b60006107c260208361077b565b91506107cd8261078c565b602082019050919050565b600060208201905081810360008301526107f1816107b5565b9050919050565b7f4f776e61626c653a206e6577206f776e657220697320746865207a65726f206160008201527f6464726573730000000000000000000000000000000000000000000000000000602082015250565b600061085460268361077b565b915061085f826107f8565b604082019050919050565b6000602082019050818103600083015261088381610847565b905091905056fea2646970667358221220d7086137f2af0a7a2192bc117d12fafcd0da83560041b2cc80afd9705e35e5b664736f6c634300080b0033",
  "immutableReferences": {},
  "source": "// SPDX-License-Identifier: MIT\r\npragma solidity  >=0.4.22 <0.9.0;\r\nimport \"./EthPriceOracleInterface.sol\";\r\nimport \"openzeppelin-solidity/contracts/access/Ownable.sol\";\r\ncontract CallerContract is Ownable{\r\n    uint256 ethPrice;\r\n    EthPriceOracleInterface private oracleInstance;\r\n    address private oracleAddress;\r\n    mapping(uint256=>bool) private receivedRequests; // all the received requests come from end users (front-end app)\r\n    event NewOracleAddressEvent(address oracleAddress);\r\n    event ReceivedNewRequestIdEvent(uint256 id);\r\n    function setOracleInstanceAddress(address _oracleInstanceAddress) public onlyOwner{\r\n        oracleAddress = _oracleInstanceAddress;\r\n        oracleInstance = EthPriceOracleInterface(oracleAddress);\r\n        emit NewOracleAddressEvent(oracleAddress);\r\n    }\r\n    function updateEthPrice() public {\r\n        uint256 id = oracleInstance.getLatestEthPrice();\r\n        receivedRequests[id] = true;\r\n        emit ReceivedNewRequestIdEvent(id);\r\n    }\r\n    function callback(uint256 _ethPrice, uint256 _id) public {\r\n\r\n    }\r\n}\r\n",
  "sourcePath": "D:\\my-projects\\FetchingETHPriceOracle\\caller\\contracts\\CallerContract.sol",
  "compiler": {
    "name": "solc",
    "version": "0.8.11+commit.d7f03943.Emscripten.clang"
  },
  "schemaVersion": "3.4.5",
  "updatedAt": "2022-02-23T16:10:45.014Z",
  "devdoc": {
    "kind": "dev",
    "methods": {
      "owner()": {
        "details": "Returns the address of the current owner."
      },
      "renounceOwnership()": {
        "details": "Leaves the contract without owner. It will not be possible to call `onlyOwner` functions anymore. Can only be called by the current owner. NOTE: Renouncing ownership will leave the contract without an owner, thereby removing any functionality that is only available to the owner."
      },
      "transferOwnership(address)": {
        "details": "Transfers ownership of the contract to a new account (`newOwner`). Can only be called by the current owner."
      }
    },
    "version": 1
  },
  "userdoc": {
    "kind": "user",
    "methods": {},
    "version": 1
  }
}